:1000000028C04CC04BC04AC049C034C647C046C0D7
:1000100045C044C043C042C041C040C03FC00000D2
:10002000000037000000000036000000000038002B
:10003000020202020202020202020102040810206D
:100040002004100801020000040000000000C5099F
:100050001C0A11241FBECFE5D2E0DEBFCDBF20E0D9
:10006000A6EAB0E001C01D92A23EB207E1F710E09F
:10007000A0E6B0E0ECE3F9E102C005900D92A63AEB
:10008000B107D9F710E0C8E2D0E003C02197FE0124
:1000900006DAC732D107D1F737D644CCB1CF1F9398
:1000A000CF93DF9311E0180F2091D000121781F148
:1000B000C091D100D091D2002150A9F08F3F49F4D6
:1000C00030E040E050E06FEF7FEF80E090E06ADBEF
:1000D0000CC0812F90E0982F88270197622F70E045
:1000E000CAD99B0102C020E030E0FE014091CD0062
:1000F0005091CE00CF018C1B9D0B8417950730F4D7
:10010000808190E0B901A6D99193F0CF1093D000EF
:10011000DF91CF911F910895DC01362F8091CB00A4
:100120009091CC00A817B90708F042C0E091D00028
:10013000EE2381F0F0E0862F90E0BF018BD9392FBC
:10014000842F90E0BF0186D9492F822F90E0BF0114
:1001500081D9292F5091D6008091D300E091D10010
:10016000F091D200581307C0CD0163E070E072D95E
:100170008E0F9F1F0BC0CD01880F991F880F991FED
:100180008E0F9F1FFC01E50FF11D10825091D300CF
:10019000FC01E50FF11D30833091D400FC01E30F29
:1001A000F11D40833091D500FC01E30FF11D208348
:1001B0000895823081F018F4813051F00895833031
:1001C00019F0843009F008958CB58F7D8CBD0895A9
:1001D0008AB58F7702C08AB58F7D8ABD0895CF9387
:1001E000DF93282F30E0F901EC5BFF4F8491F90198
:1001F000E65CFF4FD491F901E05DFF4FC491CC2341
:1002000091F08111D6DFEC2FF0E0EE0FFF1FE65DDD
:10021000FF4FA591B4918FB7F8949C91ED2FE09585
:10022000E923EC938FBFDF91CF910895CF93DF93B4
:10023000282F30E0F901EC5BFF4F8491F901E65C77
:10024000FF4FD491F901E05DFF4FC491CC2389F0B9
:100250008111AFDFEC2FF0E0EE0FFF1FEC5DFF4FE1
:10026000A591B491EC91ED2381E090E021F480E040
:1002700002C080E090E0DF91CF910895CF93DF93AB
:1002800090E0FC01E65CFF4F2491FC01E05DFF4F34
:100290008491882361F190E0880F991FFC01E25E50
:1002A000FF4FC591D491FC01E65DFF4FA591B4913C
:1002B000611109C09FB7F8948881209582238883B3
:1002C000EC912E230BC0623061F49FB7F894388113
:1002D000822F809583238883EC912E2B2C939FBFB4
:1002E00006C08FB7F894E8812E2B28838FBFDF914B
:1002F000CF9108953FB7F8948091B3009091B400E6
:10030000A091B500B091B60022B708B601FE05C0B5
:100310002F3F19F00196A11DB11D3FBFBA2FA92F84
:10032000982F8827820F911DA11DB11DBC01CD0101
:1003300043E0660F771F881F991F4A95D1F70895EC
:100340000F931F93CF93DF93CDB7DEB727970FB6E9
:10035000F894DEBF0FBECDBF8091D1009091D20046
:10036000892B09F489C0C6DF0091D7001091D8000D
:100370002091D9003091DA00DC01CB01801B910B78
:10038000A20BB30BC297A105B10568F3F894809155
:10039000CD009091CE009A838983A091D100B09135
:1003A000D200FD0131968C918F831B8298B380918E
:1003B000DD00982B9E8398B3809589238D838D8152
:1003C0008C838F8187FF02C08E818C835E816D81DB
:1003D0004F813C812B8189819A8158BB262F38BB64
:1003E00000C046FD252F68BB00C058BB362F28BB78
:1003F00000C045FD352F68BB00C058BB262F38BB59
:1004000000C044FD252F68BB00C058BB362F28BB59
:1004100000C043FD352F68BB00C058BB262F38BB3A
:1004200000C042FD252F68BB00C058BB362F28BB3B
:1004300000C041FD352F68BB00C058BB262F38BB1C
:1004400000C040FD252F68BB019758BB362F28BB45
:10045000419147FD352F68BB01F64F833C832B83C9
:100460009A838983789446DF6093D7007093D8008D
:100470008093D9009093DA0027960FB6F894DEBFE8
:100480000FBECDBFDF91CF911F910F9108958F9235
:100490009F92AF92BF92CF92DF92EF92FF926B0149
:1004A0007C0128DF4B015C01C114D104E104F1049B
:1004B000E9F020DFDC01CB0188199909AA09BB0901
:1004C000883E9340A105B10578F321E0C21AD10816
:1004D000E108F10888EE880E83E0981EA11CB11C8B
:1004E000C114D104E104F10421F7DECFFF90EF90B5
:1004F000DF90CF90BF90AF909F908F900895CF9353
:10050000DF9380E093DE892B11F0C0E001C0C2E0F0
:1005100082E08CDE21E0892B09F020E0822F8C0F15
:100520009091AC00891322C08330D9F42091AA00A5
:100530003091AB002F5F3F4F3093AB002093AA0068
:100540004091660050916700421753070CF050C06D
:100550001092AB001092AA0081E08093C70080E067
:1005600049C01092AB001092AA0042C0C92FC270BD
:10057000D92FD17090FD1CC080FF1AC063E270E0DB
:1005800080E090E084DF80E051DE892B09F4D2E046
:1005900082E04CDE21E0892B09F020E0822F8D0FD4
:1005A00091E0C11102C081FD1EC09093A90020C03E
:1005B000C1111EC081FF1CC063E270E080E090E0CA
:1005C00066DF80E033DE892B09F4C2E082E02EDEB4
:1005D00021E0892B09F020E0822F8C0F91E0D111CE
:1005E00005C080FF03C09093BB0002C09093A80099
:1005F0008093AC00DF91CF9108958091A90088236A
:1006000019F01092A90081E008958091A800882334
:1006100019F01092A80081E008959C01CB0165E0DB
:1006200070E018D7821B930B0496433621F428EC14
:1006300040E068EC1CC0423721F420E040E060E577
:1006400016C04F3619F420E046E404C0473721F4C1
:100650002FEF4FEF6FEF0BC04C3611F420E505C0C4
:1006600020E0473611F44AE501C040E060E054CD97
:10067000CF93DF93C6E0D0E088E211DD61DE64E66F
:1006800070E080E090E003DF8AE009DD59DE64E697
:1006900070E080E090E0FBDE219771F7DF91CF9171
:1006A0000895CF93DF9300D000D0CDB7DEB76115AA
:1006B00071058105910569F09B01AC0169833A835D
:1006C0004B835C8362D829813A814B815C816AD8F3
:1006D00003C060E070E0CB010F900F900F900F907F
:1006E000DF91CF9108959F92AF92BF92CF92DF9208
:1006F000EF92FF920F931F93CF93DF930AE710E0DF
:10070000C0E0D0E08FE6B82E92E7A92E2FE6922E19
:10071000E12CF12CF801EE0DFF1D4081B701CE0157
:100720007CDF4AE750E080E090E020E030E0FA0132
:10073000E20FF31F6081623711F06F3609F4019602
:100740002F5F3F4F2330310591F74D5F5F4F20E022
:100750004938520751F79093A7008093A600892B40
:1007600009F04EC064EF71E080E090E090DEA0926E
:100770007D00A0927E00A0927F00A0927A00A092BD
:100780007B00A0927C008091BE009091BF000196FA
:100790009093BF008093BE00843091051CF4C12C5F
:1007A000D12C1EC090927A0090927E0090927C0094
:1007B0000797ACF390927D0090927B0090927F001F
:1007C0001FC067E070E080E090E06BDF6330710590
:1007D0007CF4FB01E658FF4FB0828FEFC81AD80AAD
:1007E0008091BE009091BF00C816D90654F308C08E
:1007F0006330710591F366587F4FFB013197ECCF61
:100800002FEFE21AF20A83E0E816F10409F082CF32
:1008100021960D5F1F4FC530D10509F079CFDF91CB
:10082000CF911F910F91FF90EF90DF90CF90BF90ED
:10083000AF909F9085CD4F925F926F927F928F92F3
:100840009F92AF92BF92CF92DF92EF92FF920F935F
:100850001F93CF93DF9365E070E080E090E021DFAD
:10086000FB01E156FF4F80818093AD0080937A00B9
:1008700080937B0080937C0065E070E080E090E0F6
:1008800010DFFB01E156FF4F80818093AD00809324
:100890008600809387008093880065E070E080E0A8
:1008A00090E0FFDEFB01E156FF4F80818093AD00B9
:1008B00080937D00809380008093830065E070E0EA
:1008C00080E090E0EEDEFB01E156FF4F80818093F7
:1008D000AD0080937F0080938200809385008EE638
:1008E00080937E008093810080938400FCDE28DD6D
:1008F00060EA7FE080E090E0CADD80E090E0DC012B
:10090000A658BF4FFC01E859FF4F2C912083119648
:100910002C911197218312962C91228303968F306C
:10092000910569F723E0E22EF12C62E070E080E0AF
:1009300090E0B7DE660F771FFB01E556FF4F0081A1
:10094000118164E070E080E090E0ABDE4B015C017F
:1009500062E070E080E090E0A4DEAB01440F551F40
:10096000FA01E556FF4FC081D18164E070E080E07C
:1009700090E097DE2B013C010C171D07B1F28616A3
:10098000970699F2C40163E070E064D5800F911F6F
:10099000FC01E658FF4F2081C20163E070E05AD5A8
:1009A0008C0F9D1FEC01C658DF4F88818083288300
:1009B00081E0E81AF10809F0B8CF95DE88E26FDB34
:1009C000BFDC68EE73E080E090E061DD8AE0DF91FB
:1009D000CF911F910F91FF90EF90DF90CF90BF903C
:1009E000AF909F908F907F906F905F904F9057CB7C
:1009F00080E090E03FE64EE6FC01E658FF4F308392
:100A00002EE64183328303968F309105A9F7209318
:100A1000860083E6809387002093880064DE90DC64
:100A20008091C8009091C90001969093C90080936D
:100A3000C80084E893E0909367008093660008956F
:100A4000CF93DF931092900010928F001092C90004
:100A50001092C800C2E7DEE68091BB00882329F02F
:100A60001092BB00DF91CF91089580918F009091FB
:100A70009000039724F01092900010928F00BDDD3B
:100A8000882339F020918F00309190002230310579
:100A9000C4F0BBDD882339F080918F0090919000E5
:100AA000181619065CF11FDE4BDC1092A90010929B
:100AB000A8001092BB001092AB001092AA001FDD9C
:100AC000CBCFC90101969093900080938F0063E093
:100AD00070E0C0D4DC01A658BF4FCC93C90163E0DD
:100AE00070E0B8D4FC01E658FF4FC0831196CC9358
:100AF0001197C1831296CC93C283CBCF9C01215016
:100B000031093093900020938F0063E070E0A2D40D
:100B1000FC01E658FF4FD083D183D283C4CF0F931B
:100B20001F93CF93DF9383E690E0909390008093A0
:100B30008F00C0E0D0E002E7FE01E658FF4F12E769
:100B4000008301830283CFDD6AEF70E080E090E0F4
:100B50009EDC2396CF30D10579F768EE73E080E014
:100B600090E095DC1092BF001092BE0083E090E010
:100B700090936100809360001092C70010937A00F8
:100B800010937B0010937C0080E090E02EE6FC0147
:100B9000E658FF4F23832483258303968C309105E9
:100BA000B1F71092A9001092A8001092BB00109209
:100BB000AB001092AA00DF91CF911F910F9140CF0F
:100BC000CF93DF93C0918900D0918A004EE6BE0199
:100BD00084E090E022DDB4DB66E470E080E090E049
:100BE00056DC43E6BE0184E090E017DDA9DB6CE350
:100BF00070E080E090E04BDC4EE6BE0184E090E0E7
:100C00000CDD9EDB6CE370E080E090E040DC43E6CE
:100C1000BE0184E090E001DD93DB6CE370E080E0F6
:100C200090E035DC4EE6BE0184E090E0F6DC88DB47
:100C30006CE370E080E090E02ADC43E6BE0184E0F3
:100C400090E0EBDC8FEF9FEF90938A008093890018
:100C50008091600090916100019790936100809372
:100C60006000181619061CF0DF91CF9158CFDF9164
:100C7000CF9108951F920F920FB60F9211242F93C8
:100C80003F938F939F93AF93BF938091AF009091C9
:100C9000B000A091B100B091B2003091AE0026E05A
:100CA000230F2D3720F40296A11DB11D05C029E8A0
:100CB000230F0396A11DB11D2093AE008093AF00BA
:100CC0009093B000A093B100B093B2008091B300B4
:100CD0009091B400A091B500B091B6000196A11D0D
:100CE000B11D8093B3009093B400A093B500B0936E
:100CF000B600BF91AF919F918F913F912F910F902F
:100D00000FBE0F901F90189578948AB582608ABDA7
:100D10008AB581608ABD83B7826083BF83B78160F3
:100D200083BF89B7826089BF80B7826080BF80B788
:100D3000816080BF329A319A3098379A8CB580643E
:100D40008CBD62E080E09ADA62E082E097DA80911E
:100D5000CF0087FD05C061E091DA8091CF003FDAD6
:100D600081E08093CA008AE09AD9EADABCDC48E2E2
:100D7000C42ED12C54E0A52EB12C80918F009091DF
:100D800090008336910509F45BDECEE6D2E78091D0
:100D90008F0090919000892B09F0CEC08091C800FF
:100DA0009091C900892B09F423DE80918D009091E8
:100DB0008E00019790938E0080938D0002970CF027
:100DC0008AC0E0908B00F0908C00F0928E00E09250
:100DD0008D008091B7009091B80000916200109151
:100DE000630080179107CCF068EE73E080E090E03C
:100DF0004EDB3EDC1092B8001092B70062E3E61AB8
:100E0000F108F0928C00E0928B00065F1F4F109368
:100E1000630000936200ECDD05C001969093B8007A
:100E20008093B7007091890060918A002091B90089
:100E30003091BA0046E850E0FA0180E090E010817D
:100E4000DF011397AC91133661F4A23759F42A509D
:100E50003109782F692F2A30310524F421E030E060
:100E600001C0A083019631968330910541F743502C
:100E7000510980E04A375807F9F67093890060936A
:100E80008A003093BA002093B90067E070E080E0F8
:100E900090E007DC6230710528F4D0937A00C093AB
:100EA0007B0007C0C0937A006230710529F4D093AB
:100EB0007B00C0937C0007C064307105C1F3C09310
:100EC0007B00D0937C000FDC3BDA8091890090910D
:100ED0008A0097FF75DE13DB98DB882389F0809109
:100EE0008700833629F480938600C093870008C06A
:100EF00080918800833621F480938700C093880016
:100F00007CDB882389F080918600833629F4C093A6
:100F100086008093870008C080918700833621F483
:100F200080938800C09387008091C700813009F4C6
:100F3000F6DDD9DB05DA2BCF12E7DEE6CEE603E6F7
:100F40003AE0E32EF12C80918F0090919000019770
:100F500009F03AC18091C8009091C900892B91F5A0
:100F600010937A0010937B0010937C0010937D0007
:100F700010937E0010937F00C0938000C093810087
:100F8000C0938200C0938300C0938400C093850007
:100F9000C0938600C093880000938700A4DBD0D95B
:100FA00064EF71E080E090E072DA8091C800909187
:100FB000C90001969093C9008093C800D092670041
:100FC000C09266009CDA21DB882389F0809187003B
:100FD000833629F480938600C093870008C08091EF
:100FE0008800833621F480938700C093880005DB56
:100FF000882389F080918600833629F4C093860087
:101000008093870008C080918700833621F4809305
:101010008800C09387008091BB008823C9F010929C
:10102000BB0080918600833621F48CE68093830098
:101030000FC080918700833621F48CE68093840072
:1010400007C080918800833619F48CE68093850070
:101050008091C700813009F462DD45DB8091BE00DC
:101060009091BF0018161906FCF468EE73E080E05A
:1010700090E017DB66397105BCF463E070E080E056
:1010800090E00FDBFB01E658FF4F8381823711F0C0
:101090008F3619F487E6868307C08081823711F086
:1010A0008F3611F487E683831EDB8091BE0090911A
:1010B000BF009C01255031092530310528F4F092FC
:1010C0006500E092640006C00B9724F0B0926500C2
:1010D000A09264008091BC009091BD000196909315
:1010E000BD008093BC0020916400309165008217A0
:1010F0009307ECF026E8422E20E0522E4201612CAC
:10110000712CF40180818736B9F0FFEF6F1A7F0AE6
:101110006FEF861A960A83E06816710491F7E3E090
:101120004E1A5108FAE74F16F0E05F0639F72AE742
:1011300030E040E050E012C09381933639F4D08320
:1011400070928A00609289003BDD03C0F4018383C2
:10115000D0831092BD001092BC00D7CFD901139755
:1011600049018AE790E0FC0160816C3609F4D08384
:10117000F40170817C3689F44115510571F06C9150
:10118000623731F06F3611F41C9306C0673611F4E4
:10119000DC9301C07C93F401D08301961196FFEF9C
:1011A0008F1A9F0A60E08D379607E9F64F5F5F4F11
:1011B0002D5F3F4F4530510589F662E370E080E0D6
:1011C00090E065D9BDD8BFCE8FE0882E87E2982EFB
:1011D00000ED17E093E0E92EF12C80918F009091C3
:1011E0009000029709F0C5C08091C8009091C90095
:1011F000892BA1F420DB77DAA3D88091C8009091E5
:10120000C90001969093C9008093C800909267002E
:10121000809266001093780000937700C0E0D0E0E1
:101220008091770090917800C817D907B4F6C13043
:10123000D10509F03FC057DA2091C5003091C600B2
:101240008091C3009091C4002115310551F4823082
:10125000910529F4D093C600C093C5001FC0019624
:101260000BC02430310569F4009729F4F092C600D0
:10127000E092C50013C001979093C4008093C3000F
:101280000DC0009719F42150310904C0029731F4C0
:101290002F5F3F4F3093C6002093C5006091C3007D
:1012A0007091C400409179008091C5009091C60072
:1012B000B4D946D824D9A1D9811104C0A6D988238C
:1012C00009F450C0E091C300F091C4008091C500C2
:1012D0009091C60063E070E0BDD08E0F9F1FFC01AF
:1012E000E658FF4F7080809179008083709279007A
:1012F0002091C1003091C20080E090E040E050E0D9
:10130000BA01680F791FFB01E658FF4FDB01A859AE
:10131000BF4FE0816C91E61302C02F5F3F4F4F5FDC
:101320005F4F4330510561F703968F30910531F7D8
:101330003093C2002093C1002F30310509F568EECB
:1013400073E080E090E0A3D88091770090917800DE
:10135000885C910990937800809377007092C00028
:1013600087D969DA8091C700813009F4D8DB2196EA
:1013700057CF80E090E0892B09F4FFCC41D6F7CC21
:101380001092C2001092C100EDCF1092CA001092CC
:10139000D0001092D7001092D8001092D90010926D
:1013A000DA0081E08093D6008093D3001092D400BD
:1013B00082E08093D5008DE290E09093CE00809300
:1013C000CD0073D09093D2008093D100009761F04C
:1013D0002DE2FC0111922A95E9F78FE090E09093BD
:1013E000CC008093CB0008C01092CE001092CD00AC
:1013F0001092CC001092CB0081E08093CF008091BE
:10140000CA00882329F061E081E038D781E0E7D67F
:10141000E1E3F0E0E491F0E0EE0FFF1FE65DFF4F47
:10142000859194919093DC008093DB00EBE3F0E0F6
:10143000E491E093DD0008958091D1009091D20075
:10144000009709F0C7D08091CF0087FD02C060E00F
:1014500015C708950024552704C0080E591F880F8A
:10146000991F009729F076956795B8F37105B9F73C
:10147000802D952F0895AA1BBB1B51E107C0AA1F01
:10148000BB1FA617B70710F0A61BB70B881F991F25
:101490005A95A9F780959095BC01CD010895EE0F5E
:1014A000FF1F0590F491E02D0994CF93DF938230D4
:1014B000910510F482E090E0E091E000F091E1000D
:1014C00020E030E0C0E0D0E0309711F14081518160
:1014D00048175907C0F04817590761F48281938172
:1014E000209719F09B838A832BC09093E10080930F
:1014F000E00026C02115310519F04217530718F4F2
:101500009A01BE01DF01EF010280F381E02DDCCF03
:101510002115310509F1281B390B2430310590F4D0
:1015200012968D919C9113976115710521F0FB0125
:101530009383828304C09093E1008093E000FD01D7
:10154000329644C0FD01E20FF31F81939193225024
:1015500031092D933C933AC02091DE003091DF0099
:10156000232B41F420919300309194003093DF00BD
:101570002093DE00209191003091920021153105D9
:1015800041F42DB73EB74091950050919600241B31
:10159000350BE091DE00F091DF00E217F307A0F4D5
:1015A0002E1B3F0B2817390778F0AC014E5F5F4FB9
:1015B0002417350748F04E0F5F1F5093DF0040930C
:1015C000DE008193919302C0E0E0F0E0CF01DF9173
:1015D000CF9108950F931F93CF93DF93009709F452
:1015E0008CC0FC013297138212820091E0001091AE
:1015F000E1000115110581F420813181820F931FD3
:101600002091DE003091DF002817390779F5F0933B
:10161000DF00E093DE0071C0D80140E050E0AE177B
:10162000BF0750F412962D913C911397AD012115EF
:10163000310509F1D901F3CF9D01DA01338322830A
:1016400060817181860F971F8217930769F4EC01FF
:1016500028813981260F371F2E5F3F4F318320832A
:101660008A819B8193838283452B29F4F093E10047
:10167000E093E00042C01396FC93EE931297ED01C5
:10168000499159919E01240F351FE217F30771F418
:1016900080819181840F951F029611969C938E9361
:1016A0008281938113969C938E931297E0E0F0E0F1
:1016B000D80112968D919C911397009719F0F8011B
:1016C0008C01F6CF8D919C9198012E5F3F4F820F38
:1016D000931F2091DE003091DF002817390769F44D
:1016E000309729F41092E1001092E00002C01382BA
:1016F00012821093DF000093DE00DF91CF911F91E3
:101700000F910895A0E0B0E0E7E8FBE08AC0EC01AB
:10171000688179818A819B816115710581059105B7
:1017200021F464E279ED8BE597E02DE133EF41E0C0
:1017300050E038D049015A0127EA31E440E050E056
:101740004DD069017A01C501B4012CEE34EF4FEFA1
:101750005FEF44D0022F132F9A01D701C601800FEB
:10176000911FA21FB31FB7FF03C00197A109B04883
:1017700088839983AA83BB83BC01CD019F77CDB7B2
:10178000DEB7ECE06AC0BEDF089587E990E0BADF1B
:1017900008956093970070939800809399009093B8
:1017A0009A000895052E97FB16F400940FD057FD6C
:1017B00005D068D007FC02D046F408C0509540958B
:1017C000309521953F4F4F4F5F4F089590958095ED
:1017D000709561957F4F8F4F9F4F089568940013C8
:1017E000E894A0E0B0E0E6EFFBE01DC0EFEFE7F922
:1017F00059016A015E23550FEE08FE2C87019B01FB
:10180000AC019E23990F660B762FCB015DD0CDB72F
:10181000DEB7EAE024C02F923F924F925F926F9220
:101820007F928F929F92AF92BF92CF92DF92EF9270
:10183000FF920F931F93CF93DF93CDB7DEB7CA1BF1
:10184000DB0B0FB6F894DEBF0FBECDBF09942A881C
:10185000398848885F846E847D848C849B84AA84C4
:10186000B984C884DF80EE80FD800C811B81AA8151
:10187000B981CE0FD11D0FB6F894DEBF0FBECDBF1C
:10188000ED010895A1E21A2EAA1BBB1BFD010DC09C
:10189000AA1FBB1FEE1FFF1FA217B307E407F50720
:1018A00020F0A21BB30BE40BF50B661F771F881FFC
:1018B000991F1A9469F760957095809590959B0192
:1018C000AC01BD01CF010895DF93CF939F92A0E4B7
:1018D0009A2E0024D001E001F00116950795F794A7
:1018E000E794D794C794B794A79448F41068A20FCC
:1018F000B31FC41FD51FE61FF71F081E191E220F96
:10190000331F441F551F661F771F881F991F9A9406
:1019100021F79D01AE01BF01C00111249F90CF911D
:10192000DF91089510E0C8E2D0E003C0FE01B7DD0A
:0C1930002196C932D107D1F7F894FFCFFF
:10193C00030023001400F4016E6E6E6E6E6E6E6EFC
:10194C006E6E6E6E6E6E6ED007777272726E6E6E9B
:10195C006E6E6E6E6E6E6E6E6EFFFF2C012C0163E2
:10196C00000000E2008000010000000000020063A3
:06197C00726F676C0000B1
:00000001FF
